{
  "contractName": "AcquisitionContract",
  "abi": [
    {
      "constant": true,
      "inputs": [],
      "name": "acquisitionCount",
      "outputs": [
        {
          "internalType": "uint256",
          "name": "",
          "type": "uint256"
        }
      ],
      "payable": false,
      "stateMutability": "view",
      "type": "function"
    },
    {
      "constant": true,
      "inputs": [
        {
          "internalType": "uint256",
          "name": "",
          "type": "uint256"
        }
      ],
      "name": "acquisitions",
      "outputs": [
        {
          "internalType": "uint256",
          "name": "acquisitionId",
          "type": "uint256"
        },
        {
          "internalType": "uint256",
          "name": "datetime",
          "type": "uint256"
        },
        {
          "internalType": "uint256",
          "name": "registeredTemperature",
          "type": "uint256"
        },
        {
          "internalType": "uint256",
          "name": "registeredHumidity",
          "type": "uint256"
        },
        {
          "internalType": "bool",
          "name": "hasProblems",
          "type": "bool"
        },
        {
          "internalType": "uint256",
          "name": "transportId",
          "type": "uint256"
        }
      ],
      "payable": false,
      "stateMutability": "view",
      "type": "function"
    },
    {
      "constant": false,
      "inputs": [
        {
          "internalType": "uint256",
          "name": "_datetime",
          "type": "uint256"
        },
        {
          "internalType": "uint256",
          "name": "_registeredTemperature",
          "type": "uint256"
        },
        {
          "internalType": "uint256",
          "name": "_registeredHumidity",
          "type": "uint256"
        },
        {
          "internalType": "bool",
          "name": "_hasProblems",
          "type": "bool"
        },
        {
          "internalType": "uint256",
          "name": "_transportId",
          "type": "uint256"
        }
      ],
      "name": "addAcquisition",
      "outputs": [],
      "payable": false,
      "stateMutability": "nonpayable",
      "type": "function"
    },
    {
      "constant": false,
      "inputs": [
        {
          "internalType": "uint256",
          "name": "_acquisitionId",
          "type": "uint256"
        },
        {
          "internalType": "uint256",
          "name": "_registeredTemperature",
          "type": "uint256"
        }
      ],
      "name": "updateTemperature",
      "outputs": [],
      "payable": false,
      "stateMutability": "nonpayable",
      "type": "function"
    },
    {
      "constant": false,
      "inputs": [
        {
          "internalType": "uint256",
          "name": "_acquisitionId",
          "type": "uint256"
        },
        {
          "internalType": "uint256",
          "name": "_registeredHumidity",
          "type": "uint256"
        }
      ],
      "name": "updateHumidity",
      "outputs": [],
      "payable": false,
      "stateMutability": "nonpayable",
      "type": "function"
    },
    {
      "constant": false,
      "inputs": [
        {
          "internalType": "uint256",
          "name": "_acquisitionId",
          "type": "uint256"
        },
        {
          "internalType": "bool",
          "name": "_hasProblems",
          "type": "bool"
        }
      ],
      "name": "updateProblems",
      "outputs": [],
      "payable": false,
      "stateMutability": "nonpayable",
      "type": "function"
    },
    {
      "constant": true,
      "inputs": [
        {
          "internalType": "uint256",
          "name": "_transportId",
          "type": "uint256"
        }
      ],
      "name": "getAcquisitionsByTransportId",
      "outputs": [
        {
          "components": [
            {
              "internalType": "uint256",
              "name": "acquisitionId",
              "type": "uint256"
            },
            {
              "internalType": "uint256",
              "name": "datetime",
              "type": "uint256"
            },
            {
              "internalType": "uint256",
              "name": "registeredTemperature",
              "type": "uint256"
            },
            {
              "internalType": "uint256",
              "name": "registeredHumidity",
              "type": "uint256"
            },
            {
              "internalType": "bool",
              "name": "hasProblems",
              "type": "bool"
            },
            {
              "internalType": "uint256",
              "name": "transportId",
              "type": "uint256"
            }
          ],
          "internalType": "struct AcquisitionContract.Acquisition[]",
          "name": "",
          "type": "tuple[]"
        }
      ],
      "payable": false,
      "stateMutability": "view",
      "type": "function"
    }
  ],
  "bytecode": "0x6080604052600060015534801561001557600080fd5b50610a4f806100256000396000f3fe608060405234801561001057600080fd5b506004361061007d5760003560e01c806392d6f3401161005b57806392d6f34014610103578063a464a7ac1461011f578063eb36441c1461013b578063ee9c4084146101575761007d565b8063050f54411461008257806328f28c461461009e57806341111a4a146100ce575b600080fd5b61009c60048036036100979190810190610640565b610175565b005b6100b860048036036100b391908101906105db565b6101e4565b6040516100c591906108a0565b60405180910390f35b6100e860048036036100e391908101906105db565b610386565b6040516100fa9695949392919061091d565b60405180910390f35b61011d60048036036101189190810190610604565b6103cf565b005b6101396004803603610134919081019061067c565b610451565b005b61015560048036036101509190810190610640565b610504565b005b61015f610573565b60405161016c9190610902565b60405180910390f35b60008211801561018757506001548211155b6101c6576040517f08c379a00000000000000000000000000000000000000000000000000000000081526004016101bd906108e2565b60405180910390fd5b80600080848152602001908152602001600020600301819055505050565b606060008211610229576040517f08c379a0000000000000000000000000000000000000000000000000000000008152600401610220906108c2565b60405180910390fd5b60008090506000600190505b600154811161027157836000808381526020019081526020016000206005015414156102645781806001019250505b8080600101915050610235565b506060816040519080825280602002602001820160405280156102ae57816020015b61029b610579565b8152602001906001900390816102935790505b50905060008090506000600190505b600154811161037a578560008083815260200190815260200160002060050154141561036d576000808281526020019081526020016000206040518060c0016040529081600082015481526020016001820154815260200160028201548152602001600382015481526020016004820160009054906101000a900460ff1615151515815260200160058201548152505083838151811061035957fe5b602002602001018190525081806001019250505b80806001019150506102bd565b50819350505050919050565b60006020528060005260406000206000915090508060000154908060010154908060020154908060030154908060040160009054906101000a900460ff16908060050154905086565b6000821180156103e157506001548211155b610420576040517f08c379a0000000000000000000000000000000000000000000000000000000008152600401610417906108c2565b60405180910390fd5b8060008084815260200190815260200160002060040160006101000a81548160ff0219169083151502179055505050565b6001600081548092919060010191905055506040518060c00160405280600154815260200186815260200185815260200184815260200183151581526020018281525060008060015481526020019081526020016000206000820151816000015560208201518160010155604082015181600201556060820151816003015560808201518160040160006101000a81548160ff02191690831515021790555060a082015181600501559050505050505050565b60008211801561051657506001548211155b610555576040517f08c379a000000000000000000000000000000000000000000000000000000000815260040161054c906108e2565b60405180910390fd5b80600080848152602001908152602001600020600201819055505050565b60015481565b6040518060c0016040528060008152602001600081526020016000815260200160008152602001600015158152602001600081525090565b6000813590506105c0816109de565b92915050565b6000813590506105d5816109f5565b92915050565b6000602082840312156105ed57600080fd5b60006105fb848285016105c6565b91505092915050565b6000806040838503121561061757600080fd5b6000610625858286016105c6565b9250506020610636858286016105b1565b9150509250929050565b6000806040838503121561065357600080fd5b6000610661858286016105c6565b9250506020610672858286016105c6565b9150509250929050565b600080600080600060a0868803121561069457600080fd5b60006106a2888289016105c6565b95505060206106b3888289016105c6565b94505060406106c4888289016105c6565b93505060606106d5888289016105b1565b92505060806106e6888289016105c6565b9150509295509295909350565b60006106ff8383610807565b60c08301905092915050565b60006107168261098e565b61072081856109a6565b935061072b8361097e565b8060005b8381101561075c57815161074388826106f3565b975061074e83610999565b92505060018101905061072f565b5085935050505092915050565b610772816109c8565b82525050565b610781816109c8565b82525050565b60006107946014836109b7565b91507f496e76616c6964207472616e73706f72742049440000000000000000000000006000830152602082019050919050565b60006107d46016836109b7565b91507f496e76616c6964206163717569736974696f6e204944000000000000000000006000830152602082019050919050565b60c08201600082015161081d6000850182610882565b5060208201516108306020850182610882565b5060408201516108436040850182610882565b5060608201516108566060850182610882565b5060808201516108696080850182610769565b5060a082015161087c60a0850182610882565b50505050565b61088b816109d4565b82525050565b61089a816109d4565b82525050565b600060208201905081810360008301526108ba818461070b565b905092915050565b600060208201905081810360008301526108db81610787565b9050919050565b600060208201905081810360008301526108fb816107c7565b9050919050565b60006020820190506109176000830184610891565b92915050565b600060c0820190506109326000830189610891565b61093f6020830188610891565b61094c6040830187610891565b6109596060830186610891565b6109666080830185610778565b61097360a0830184610891565b979650505050505050565b6000819050602082019050919050565b600081519050919050565b6000602082019050919050565b600082825260208201905092915050565b600082825260208201905092915050565b60008115159050919050565b6000819050919050565b6109e7816109c8565b81146109f257600080fd5b50565b6109fe816109d4565b8114610a0957600080fd5b5056fea365627a7a723158207a01620f57295cb03ad4436ea8169eb586e92a0bcf30b8568827c468e25547ce6c6578706572696d656e74616cf564736f6c63430005100040",
  "source": "// SPDX-License-Identifier: MIT\n\npragma solidity ^0.5.0;\npragma experimental ABIEncoderV2;\n\ncontract AcquisitionContract {\n    mapping(uint => Acquisition) public acquisitions;\n    uint public acquisitionCount = 0;\n\n    struct Acquisition {\n        uint acquisitionId;\n        uint datetime;\n        uint registeredTemperature;\n        uint registeredHumidity;\n        bool hasProblems;\n        uint transportId;\n    }\n\n    function addAcquisition(uint _datetime, uint _registeredTemperature, uint _registeredHumidity, bool _hasProblems, uint _transportId) public {\n        acquisitionCount ++;\n        acquisitions[acquisitionCount] = Acquisition(\n            acquisitionCount,\n            _datetime,\n            _registeredTemperature,\n            _registeredHumidity,\n            _hasProblems,\n            _transportId\n        );\n    }\n\n    function updateTemperature(uint _acquisitionId, uint _registeredTemperature) \n    public {\n        require(_acquisitionId > 0 && _acquisitionId <= acquisitionCount, \"Invalid acquisition ID\");\n        acquisitions[_acquisitionId].registeredTemperature = _registeredTemperature;\n    }\n\n    function updateHumidity(uint _acquisitionId, uint _registeredHumidity) \n    public {\n        require(_acquisitionId > 0 && _acquisitionId <= acquisitionCount, \"Invalid acquisition ID\");\n        acquisitions[_acquisitionId].registeredHumidity = _registeredHumidity;\n    }\n\n    function updateProblems(uint _acquisitionId, bool _hasProblems) public {\n        require(_acquisitionId > 0 && _acquisitionId <= acquisitionCount, \"Invalid transport ID\");\n        acquisitions[_acquisitionId].hasProblems = _hasProblems;\n    }\n\n    function getAcquisitionsByTransportId(uint _transportId) public view returns (Acquisition[] memory) {\n        require(_transportId > 0, \"Invalid transport ID\");\n\n        uint count = 0;\n        for (uint i = 1; i <= acquisitionCount; i++) {\n            if (acquisitions[i].transportId == _transportId) {\n                count++;\n            }\n        }\n\n        Acquisition[] memory result = new Acquisition[](count);\n        uint index = 0;\n        for (uint i = 1; i <= acquisitionCount; i++) {\n            if (acquisitions[i].transportId == _transportId) {\n                result[index] = acquisitions[i];\n                index++;\n            }\n        }\n        return result;\n    }\n}\n",
  "sourcePath": "/Users/andreacaputo/Desktop/transport/src/contracts/AcquisitionContract.sol",
  "compiler": {
    "name": "solc",
    "version": "0.5.16+commit.9c3226ce.Emscripten.clang"
  },
  "schemaVersion": "3.4.14",
  "updatedAt": "2023-07-20T09:39:25.538Z",
  "networkType": "ethereum",
  "devdoc": {
    "methods": {}
  },
  "userdoc": {
    "methods": {}
  }
}