{
  "contractName": "AcquisitionContract",
  "abi": [
    {
      "constant": true,
      "inputs": [],
      "name": "acquisitionCount",
      "outputs": [
        {
          "internalType": "uint256",
          "name": "",
          "type": "uint256"
        }
      ],
      "payable": false,
      "stateMutability": "view",
      "type": "function"
    },
    {
      "constant": true,
      "inputs": [
        {
          "internalType": "uint256",
          "name": "",
          "type": "uint256"
        }
      ],
      "name": "acquisitions",
      "outputs": [
        {
          "internalType": "uint256",
          "name": "acquisitionId",
          "type": "uint256"
        },
        {
          "internalType": "uint256",
          "name": "datetime",
          "type": "uint256"
        },
        {
          "internalType": "uint256",
          "name": "registeredTemperature",
          "type": "uint256"
        },
        {
          "internalType": "bool",
          "name": "hasProblems",
          "type": "bool"
        },
        {
          "internalType": "uint256",
          "name": "transportId",
          "type": "uint256"
        }
      ],
      "payable": false,
      "stateMutability": "view",
      "type": "function"
    },
    {
      "constant": false,
      "inputs": [
        {
          "internalType": "uint256",
          "name": "_datetime",
          "type": "uint256"
        },
        {
          "internalType": "uint256",
          "name": "_registeredTemperature",
          "type": "uint256"
        },
        {
          "internalType": "bool",
          "name": "_hasProblems",
          "type": "bool"
        },
        {
          "internalType": "uint256",
          "name": "_transportId",
          "type": "uint256"
        }
      ],
      "name": "addAcquisition",
      "outputs": [],
      "payable": false,
      "stateMutability": "nonpayable",
      "type": "function"
    },
    {
      "constant": true,
      "inputs": [
        {
          "internalType": "uint256",
          "name": "_transportId",
          "type": "uint256"
        }
      ],
      "name": "getAllAcquisitionByID",
      "outputs": [
        {
          "internalType": "uint256",
          "name": "acquisitionId",
          "type": "uint256"
        },
        {
          "internalType": "uint256",
          "name": "datetime",
          "type": "uint256"
        },
        {
          "internalType": "uint256",
          "name": "registeredTemperature",
          "type": "uint256"
        },
        {
          "internalType": "bool",
          "name": "hasProblems",
          "type": "bool"
        },
        {
          "internalType": "uint256",
          "name": "transportId",
          "type": "uint256"
        }
      ],
      "payable": false,
      "stateMutability": "view",
      "type": "function"
    },
    {
      "constant": false,
      "inputs": [
        {
          "internalType": "uint256",
          "name": "_acquisitionId",
          "type": "uint256"
        },
        {
          "internalType": "uint256",
          "name": "_registeredTemperature",
          "type": "uint256"
        }
      ],
      "name": "updateTemperature",
      "outputs": [],
      "payable": false,
      "stateMutability": "nonpayable",
      "type": "function"
    },
    {
      "constant": false,
      "inputs": [
        {
          "internalType": "uint256",
          "name": "_acquisitionId",
          "type": "uint256"
        },
        {
          "internalType": "bool",
          "name": "_hasProblems",
          "type": "bool"
        }
      ],
      "name": "updateProblems",
      "outputs": [],
      "payable": false,
      "stateMutability": "nonpayable",
      "type": "function"
    },
    {
      "constant": true,
      "inputs": [
        {
          "internalType": "uint256",
          "name": "_transportId",
          "type": "uint256"
        }
      ],
      "name": "getAcquisitionsByTransportId",
      "outputs": [
        {
          "components": [
            {
              "internalType": "uint256",
              "name": "acquisitionId",
              "type": "uint256"
            },
            {
              "internalType": "uint256",
              "name": "datetime",
              "type": "uint256"
            },
            {
              "internalType": "uint256",
              "name": "registeredTemperature",
              "type": "uint256"
            },
            {
              "internalType": "bool",
              "name": "hasProblems",
              "type": "bool"
            },
            {
              "internalType": "uint256",
              "name": "transportId",
              "type": "uint256"
            }
          ],
          "internalType": "struct AcquisitionContract.Acquisition[]",
          "name": "",
          "type": "tuple[]"
        }
      ],
      "payable": false,
      "stateMutability": "view",
      "type": "function"
    }
  ],
  "bytecode": "0x6080604052600060015534801561001557600080fd5b50610aac806100256000396000f3fe608060405234801561001057600080fd5b506004361061007d5760003560e01c806392d6f3401161005b57806392d6f3401461011a578063cf4b1f9b14610136578063eb36441c14610152578063ee9c40841461016e5761007d565b806312d1d7761461008257806328f28c46146100b657806341111a4a146100e6575b600080fd5b61009c6004803603610097919081019061066d565b61018c565b6040516100ad959493929190610988565b60405180910390f35b6100d060048036036100cb919081019061066d565b61026d565b6040516100dd919061090b565b60405180910390f35b61010060048036036100fb919081019061066d565b610405565b604051610111959493929190610988565b60405180910390f35b610134600480360361012f9190810190610696565b610448565b005b610150600480360361014b919081019061070e565b6104ca565b005b61016c600480360361016791908101906106d2565b61056c565b005b6101766105db565b604051610183919061096d565b60405180910390f35b60008060008060008086116101d6576040517f08c379a00000000000000000000000000000000000000000000000000000000081526004016101cd9061092d565b60405180910390fd5b6101de6105e1565b6000808881526020019081526020016000206040518060a00160405290816000820154815260200160018201548152602001600282015481526020016003820160009054906101000a900460ff16151515158152602001600482015481525050905080600001518160200151826040015183606001518460800151955095509550955095505091939590929450565b6060600082116102b2576040517f08c379a00000000000000000000000000000000000000000000000000000000081526004016102a99061092d565b60405180910390fd5b60008090506000600190505b60015481116102fa57836000808381526020019081526020016000206004015414156102ed5781806001019250505b80806001019150506102be565b5060608160405190808252806020026020018201604052801561033757816020015b610324610612565b81526020019060019003908161031c5790505b50905060008090506000600190505b60015481116103f957856000808381526020019081526020016000206004015414156103ec576000808281526020019081526020016000206040518060a00160405290816000820154815260200160018201548152602001600282015481526020016003820160009054906101000a900460ff161515151581526020016004820154815250508383815181106103d857fe5b602002602001018190525081806001019250505b8080600101915050610346565b50819350505050919050565b60006020528060005260406000206000915090508060000154908060010154908060020154908060030160009054906101000a900460ff16908060040154905085565b60008211801561045a57506001548211155b610499576040517f08c379a00000000000000000000000000000000000000000000000000000000081526004016104909061092d565b60405180910390fd5b8060008084815260200190815260200160002060030160006101000a81548160ff0219169083151502179055505050565b6001600081548092919060010191905055506040518060a001604052806001548152602001858152602001848152602001831515815260200182815250600080600154815260200190815260200160002060008201518160000155602082015181600101556040820151816002015560608201518160030160006101000a81548160ff0219169083151502179055506080820151816004015590505050505050565b60008211801561057e57506001548211155b6105bd576040517f08c379a00000000000000000000000000000000000000000000000000000000081526004016105b49061094d565b60405180910390fd5b80600080848152602001908152602001600020600201819055505050565b60015481565b6040518060a00160405280600081526020016000815260200160008152602001600015158152602001600081525090565b6040518060a00160405280600081526020016000815260200160008152602001600015158152602001600081525090565b60008135905061065281610a3b565b92915050565b60008135905061066781610a52565b92915050565b60006020828403121561067f57600080fd5b600061068d84828501610658565b91505092915050565b600080604083850312156106a957600080fd5b60006106b785828601610658565b92505060206106c885828601610643565b9150509250929050565b600080604083850312156106e557600080fd5b60006106f385828601610658565b925050602061070485828601610658565b9150509250929050565b6000806000806080858703121561072457600080fd5b600061073287828801610658565b945050602061074387828801610658565b935050604061075487828801610643565b925050606061076587828801610658565b91505092959194509250565b600061077d8383610885565b60a08301905092915050565b6000610794826109eb565b61079e8185610a03565b93506107a9836109db565b8060005b838110156107da5781516107c18882610771565b97506107cc836109f6565b9250506001810190506107ad565b5085935050505092915050565b6107f081610a25565b82525050565b6107ff81610a25565b82525050565b6000610812601483610a14565b91507f496e76616c6964207472616e73706f72742049440000000000000000000000006000830152602082019050919050565b6000610852601683610a14565b91507f496e76616c6964206163717569736974696f6e204944000000000000000000006000830152602082019050919050565b60a08201600082015161089b60008501826108ed565b5060208201516108ae60208501826108ed565b5060408201516108c160408501826108ed565b5060608201516108d460608501826107e7565b5060808201516108e760808501826108ed565b50505050565b6108f681610a31565b82525050565b61090581610a31565b82525050565b600060208201905081810360008301526109258184610789565b905092915050565b6000602082019050818103600083015261094681610805565b9050919050565b6000602082019050818103600083015261096681610845565b9050919050565b600060208201905061098260008301846108fc565b92915050565b600060a08201905061099d60008301886108fc565b6109aa60208301876108fc565b6109b760408301866108fc565b6109c460608301856107f6565b6109d160808301846108fc565b9695505050505050565b6000819050602082019050919050565b600081519050919050565b6000602082019050919050565b600082825260208201905092915050565b600082825260208201905092915050565b60008115159050919050565b6000819050919050565b610a4481610a25565b8114610a4f57600080fd5b50565b610a5b81610a31565b8114610a6657600080fd5b5056fea365627a7a7231582055299b227df0d52f38bbe15054298d73aee9c3e322f09f51eb08968ea72b01616c6578706572696d656e74616cf564736f6c63430005100040",
  "source": "// SPDX-License-Identifier: MIT\n\npragma solidity ^0.5.0;\npragma experimental ABIEncoderV2;\n\ncontract AcquisitionContract {\n    mapping(uint => Acquisition) public acquisitions;\n    uint public acquisitionCount = 0;\n\n    struct Acquisition {\n        uint acquisitionId;\n        uint datetime;\n        uint registeredTemperature;\n        bool hasProblems;\n        uint transportId;\n    }\n\n    function addAcquisition(uint _datetime, uint _registeredTemperature, bool _hasProblems, uint _transportId) public {\n        acquisitionCount ++;\n        acquisitions[acquisitionCount] = Acquisition(\n            acquisitionCount,\n            _datetime,\n            _registeredTemperature,\n            _hasProblems,\n            _transportId\n        );\n    }\n\n    function getAllAcquisitionByID(uint _transportId) public view returns (\n        uint acquisitionId,\n        uint datetime,\n        uint registeredTemperature,\n        bool hasProblems,\n        uint transportId\n\n    ) {\n        // Make sure the transport has a valid id\n        require(_transportId > 0, \"Invalid transport ID\");\n\n        Acquisition memory _acquisition = acquisitions[_transportId];\n        return (\n            _acquisition.acquisitionId,\n            _acquisition.datetime,\n            _acquisition.registeredTemperature,\n            _acquisition.hasProblems,\n            _acquisition.transportId\n\n        );\n    }\n\n    function updateTemperature(uint _acquisitionId, uint _registeredTemperature) \n    public {\n        require(_acquisitionId > 0 && _acquisitionId <= acquisitionCount, \"Invalid acquisition ID\");\n        acquisitions[_acquisitionId].registeredTemperature = _registeredTemperature;\n    }\n\n    function updateProblems(uint _acquisitionId, bool _hasProblems) public {\n        require(_acquisitionId > 0 && _acquisitionId <= acquisitionCount, \"Invalid transport ID\");\n        acquisitions[_acquisitionId].hasProblems = _hasProblems;\n    }\n\n    function getAcquisitionsByTransportId(uint _transportId) public view returns (Acquisition[] memory) {\n    require(_transportId > 0, \"Invalid transport ID\");\n\n    uint count = 0;\n    for (uint i = 1; i <= acquisitionCount; i++) {\n        if (acquisitions[i].transportId == _transportId) {\n            count++;\n        }\n    }\n\n    Acquisition[] memory result = new Acquisition[](count);\n    uint index = 0;\n    for (uint i = 1; i <= acquisitionCount; i++) {\n        if (acquisitions[i].transportId == _transportId) {\n            result[index] = acquisitions[i];\n            index++;\n        }\n    }\n\n    return result;\n}\n\n}\n",
  "sourcePath": "/Users/andreacaputo/Desktop/transportV2/src/contracts/AcquisitionContract.sol",
  "compiler": {
    "name": "solc",
    "version": "0.5.16+commit.9c3226ce.Emscripten.clang"
  },
  "schemaVersion": "3.4.14",
  "updatedAt": "2023-07-18T13:47:50.070Z",
  "networkType": "ethereum",
  "devdoc": {
    "methods": {}
  },
  "userdoc": {
    "methods": {}
  }
}