{
  "contractName": "AcquisitionContract",
  "abi": [
    {
      "constant": true,
      "inputs": [],
      "name": "acquisitionCount",
      "outputs": [
        {
          "internalType": "uint256",
          "name": "",
          "type": "uint256"
        }
      ],
      "payable": false,
      "stateMutability": "view",
      "type": "function"
    },
    {
      "constant": true,
      "inputs": [
        {
          "internalType": "uint256",
          "name": "",
          "type": "uint256"
        }
      ],
      "name": "acquisitions",
      "outputs": [
        {
          "internalType": "uint256",
          "name": "acquisitionId",
          "type": "uint256"
        },
        {
          "internalType": "uint256",
          "name": "datetime",
          "type": "uint256"
        },
        {
          "internalType": "uint256",
          "name": "registeredTemperature",
          "type": "uint256"
        },
        {
          "internalType": "uint256",
          "name": "registeredHumidity",
          "type": "uint256"
        },
        {
          "internalType": "bool",
          "name": "hasProblems",
          "type": "bool"
        },
        {
          "internalType": "uint256",
          "name": "transportId",
          "type": "uint256"
        }
      ],
      "payable": false,
      "stateMutability": "view",
      "type": "function"
    },
    {
      "constant": false,
      "inputs": [
        {
          "internalType": "uint256",
          "name": "_datetime",
          "type": "uint256"
        },
        {
          "internalType": "uint256",
          "name": "_registeredTemperature",
          "type": "uint256"
        },
        {
          "internalType": "uint256",
          "name": "_registeredHumidity",
          "type": "uint256"
        },
        {
          "internalType": "bool",
          "name": "_hasProblems",
          "type": "bool"
        },
        {
          "internalType": "uint256",
          "name": "_transportId",
          "type": "uint256"
        }
      ],
      "name": "addAcquisition",
      "outputs": [],
      "payable": false,
      "stateMutability": "nonpayable",
      "type": "function"
    },
    {
      "constant": true,
      "inputs": [
        {
          "internalType": "uint256",
          "name": "_transportId",
          "type": "uint256"
        }
      ],
      "name": "getAcquisitionsByTransportId",
      "outputs": [
        {
          "components": [
            {
              "internalType": "uint256",
              "name": "acquisitionId",
              "type": "uint256"
            },
            {
              "internalType": "uint256",
              "name": "datetime",
              "type": "uint256"
            },
            {
              "internalType": "uint256",
              "name": "registeredTemperature",
              "type": "uint256"
            },
            {
              "internalType": "uint256",
              "name": "registeredHumidity",
              "type": "uint256"
            },
            {
              "internalType": "bool",
              "name": "hasProblems",
              "type": "bool"
            },
            {
              "internalType": "uint256",
              "name": "transportId",
              "type": "uint256"
            }
          ],
          "internalType": "struct AcquisitionContract.Acquisition[]",
          "name": "",
          "type": "tuple[]"
        }
      ],
      "payable": false,
      "stateMutability": "view",
      "type": "function"
    }
  ],
  "bytecode": "0x6080604052600060015534801561001557600080fd5b50610792806100256000396000f3fe608060405234801561001057600080fd5b506004361061004c5760003560e01c806328f28c461461005157806341111a4a14610081578063a464a7ac146100b6578063ee9c4084146100d2575b600080fd5b61006b600480360361006691908101906103f6565b6100f0565b6040516100789190610603565b60405180910390f35b61009b600480360361009691908101906103f6565b610292565b6040516100ad96959493929190610660565b60405180910390f35b6100d060048036036100cb919081019061041f565b6102db565b005b6100da61038e565b6040516100e79190610645565b60405180910390f35b606060008211610135576040517f08c379a000000000000000000000000000000000000000000000000000000000815260040161012c90610625565b60405180910390fd5b60008090506000600190505b600154811161017d57836000808381526020019081526020016000206005015414156101705781806001019250505b8080600101915050610141565b506060816040519080825280602002602001820160405280156101ba57816020015b6101a7610394565b81526020019060019003908161019f5790505b50905060008090506000600190505b60015481116102865785600080838152602001908152602001600020600501541415610279576000808281526020019081526020016000206040518060c0016040529081600082015481526020016001820154815260200160028201548152602001600382015481526020016004820160009054906101000a900460ff1615151515815260200160058201548152505083838151811061026557fe5b602002602001018190525081806001019250505b80806001019150506101c9565b50819350505050919050565b60006020528060005260406000206000915090508060000154908060010154908060020154908060030154908060040160009054906101000a900460ff16908060050154905086565b6001600081548092919060010191905055506040518060c00160405280600154815260200186815260200185815260200184815260200183151581526020018281525060008060015481526020019081526020016000206000820151816000015560208201518160010155604082015181600201556060820151816003015560808201518160040160006101000a81548160ff02191690831515021790555060a082015181600501559050505050505050565b60015481565b6040518060c0016040528060008152602001600081526020016000815260200160008152602001600015158152602001600081525090565b6000813590506103db81610721565b92915050565b6000813590506103f081610738565b92915050565b60006020828403121561040857600080fd5b6000610416848285016103e1565b91505092915050565b600080600080600060a0868803121561043757600080fd5b6000610445888289016103e1565b9550506020610456888289016103e1565b9450506040610467888289016103e1565b9350506060610478888289016103cc565b9250506080610489888289016103e1565b9150509295509295909350565b60006104a2838361056a565b60c08301905092915050565b60006104b9826106d1565b6104c381856106e9565b93506104ce836106c1565b8060005b838110156104ff5781516104e68882610496565b97506104f1836106dc565b9250506001810190506104d2565b5085935050505092915050565b6105158161070b565b82525050565b6105248161070b565b82525050565b60006105376014836106fa565b91507f496e76616c6964207472616e73706f72742049440000000000000000000000006000830152602082019050919050565b60c08201600082015161058060008501826105e5565b50602082015161059360208501826105e5565b5060408201516105a660408501826105e5565b5060608201516105b960608501826105e5565b5060808201516105cc608085018261050c565b5060a08201516105df60a08501826105e5565b50505050565b6105ee81610717565b82525050565b6105fd81610717565b82525050565b6000602082019050818103600083015261061d81846104ae565b905092915050565b6000602082019050818103600083015261063e8161052a565b9050919050565b600060208201905061065a60008301846105f4565b92915050565b600060c08201905061067560008301896105f4565b61068260208301886105f4565b61068f60408301876105f4565b61069c60608301866105f4565b6106a9608083018561051b565b6106b660a08301846105f4565b979650505050505050565b6000819050602082019050919050565b600081519050919050565b6000602082019050919050565b600082825260208201905092915050565b600082825260208201905092915050565b60008115159050919050565b6000819050919050565b61072a8161070b565b811461073557600080fd5b50565b61074181610717565b811461074c57600080fd5b5056fea365627a7a72315820ace72120f69f9d928120d3892afb10368578778fd14b17db8b53451a196bf8ba6c6578706572696d656e74616cf564736f6c63430005100040",
  "source": "// SPDX-License-Identifier: MIT\n\npragma solidity ^0.5.0;\npragma experimental ABIEncoderV2;\n\ncontract AcquisitionContract {\n    mapping(uint => Acquisition) public acquisitions;\n    uint public acquisitionCount = 0;\n\n    struct Acquisition {\n        uint acquisitionId;\n        uint datetime;\n        uint registeredTemperature;\n        uint registeredHumidity;\n        bool hasProblems;\n        uint transportId;\n    }\n\n    function addAcquisition(uint _datetime, uint _registeredTemperature, uint _registeredHumidity, bool _hasProblems, uint _transportId) public {\n        acquisitionCount ++;\n        acquisitions[acquisitionCount] = Acquisition(\n            acquisitionCount,\n            _datetime,\n            _registeredTemperature,\n            _registeredHumidity,\n            _hasProblems,\n            _transportId\n        );\n    }\n\n    function getAcquisitionsByTransportId(uint _transportId) public view returns (Acquisition[] memory) {\n        require(_transportId > 0, \"Invalid transport ID\");\n\n        uint count = 0;\n        for (uint i = 1; i <= acquisitionCount; i++) {\n            if (acquisitions[i].transportId == _transportId) {\n                count++;\n            }\n        }\n\n        Acquisition[] memory result = new Acquisition[](count);\n        uint index = 0;\n        for (uint i = 1; i <= acquisitionCount; i++) {\n            if (acquisitions[i].transportId == _transportId) {\n                result[index] = acquisitions[i];\n                index++;\n            }\n        }\n        return result;\n    }\n}\n\n\n\n\n\n\n\n\n",
  "sourcePath": "/Users/andreacaputo/Desktop/transport/src/contracts/AcquisitionContract.sol",
  "compiler": {
    "name": "solc",
    "version": "0.5.16+commit.9c3226ce.Emscripten.clang"
  },
  "schemaVersion": "3.4.14",
  "updatedAt": "2023-07-27T13:45:31.563Z",
  "networkType": "ethereum",
  "devdoc": {
    "methods": {}
  },
  "userdoc": {
    "methods": {}
  }
}