{
  "contractName": "AcquisitionContract",
  "abi": [
    {
      "constant": true,
      "inputs": [],
      "name": "acquisitionCount",
      "outputs": [
        {
          "internalType": "uint256",
          "name": "",
          "type": "uint256"
        }
      ],
      "payable": false,
      "stateMutability": "view",
      "type": "function"
    },
    {
      "constant": true,
      "inputs": [
        {
          "internalType": "uint256",
          "name": "",
          "type": "uint256"
        }
      ],
      "name": "acquisitions",
      "outputs": [
        {
          "internalType": "uint256",
          "name": "acquisitionId",
          "type": "uint256"
        },
        {
          "internalType": "uint256",
          "name": "datetime",
          "type": "uint256"
        },
        {
          "internalType": "uint256",
          "name": "registeredTemperature",
          "type": "uint256"
        },
        {
          "internalType": "bool",
          "name": "hasProblems",
          "type": "bool"
        },
        {
          "internalType": "uint256",
          "name": "transportId",
          "type": "uint256"
        }
      ],
      "payable": false,
      "stateMutability": "view",
      "type": "function"
    },
    {
      "constant": false,
      "inputs": [
        {
          "internalType": "uint256",
          "name": "_datetime",
          "type": "uint256"
        },
        {
          "internalType": "uint256",
          "name": "_registeredTemperature",
          "type": "uint256"
        },
        {
          "internalType": "bool",
          "name": "_hasProblems",
          "type": "bool"
        },
        {
          "internalType": "uint256",
          "name": "_transportId",
          "type": "uint256"
        }
      ],
      "name": "addAcquisition",
      "outputs": [],
      "payable": false,
      "stateMutability": "nonpayable",
      "type": "function"
    },
    {
      "constant": false,
      "inputs": [
        {
          "internalType": "uint256",
          "name": "_acquisitionId",
          "type": "uint256"
        },
        {
          "internalType": "uint256",
          "name": "_registeredTemperature",
          "type": "uint256"
        }
      ],
      "name": "updateTemperature",
      "outputs": [],
      "payable": false,
      "stateMutability": "nonpayable",
      "type": "function"
    },
    {
      "constant": false,
      "inputs": [
        {
          "internalType": "uint256",
          "name": "_acquisitionId",
          "type": "uint256"
        },
        {
          "internalType": "bool",
          "name": "_hasProblems",
          "type": "bool"
        }
      ],
      "name": "updateProblems",
      "outputs": [],
      "payable": false,
      "stateMutability": "nonpayable",
      "type": "function"
    }
  ],
  "bytecode": "0x6080604052600060015534801561001557600080fd5b50610413806100256000396000f3fe608060405234801561001057600080fd5b50600436106100575760003560e01c806341111a4a1461005c57806392d6f340146100be578063cf4b1f9b146100f8578063eb36441c14610146578063ee9c40841461017e575b600080fd5b6100886004803603602081101561007257600080fd5b810190808035906020019092919050505061019c565b60405180868152602001858152602001848152602001831515151581526020018281526020019550505050505060405180910390f35b6100f6600480360360408110156100d457600080fd5b81019080803590602001909291908035151590602001909291905050506101df565b005b6101446004803603608081101561010e57600080fd5b81019080803590602001909291908035906020019092919080351515906020019092919080359060200190929190505050610294565b005b61017c6004803603604081101561015c57600080fd5b810190808035906020019092919080359060200190929190505050610336565b005b6101866103d8565b6040518082815260200191505060405180910390f35b60006020528060005260406000206000915090508060000154908060010154908060020154908060030160009054906101000a900460ff16908060040154905085565b6000821180156101f157506001548211155b610263576040517f08c379a00000000000000000000000000000000000000000000000000000000081526004018080602001828103825260148152602001807f496e76616c6964207472616e73706f727420494400000000000000000000000081525060200191505060405180910390fd5b8060008084815260200190815260200160002060030160006101000a81548160ff0219169083151502179055505050565b6001600081548092919060010191905055506040518060a001604052806001548152602001858152602001848152602001831515815260200182815250600080600154815260200190815260200160002060008201518160000155602082015181600101556040820151816002015560608201518160030160006101000a81548160ff0219169083151502179055506080820151816004015590505050505050565b60008211801561034857506001548211155b6103ba576040517f08c379a00000000000000000000000000000000000000000000000000000000081526004018080602001828103825260168152602001807f496e76616c6964206163717569736974696f6e2049440000000000000000000081525060200191505060405180910390fd5b80600080848152602001908152602001600020600201819055505050565b6001548156fea265627a7a72315820a15ed88d037c5b9bff0b416fc324dc1fe6c22a7513619ef4e7b4eb3f3126514e64736f6c63430005100032",
  "source": "// SPDX-License-Identifier: MIT\n\npragma solidity ^0.5.0;\n\ncontract AcquisitionContract {\n    mapping(uint => Acquisition) public acquisitions;\n    uint public acquisitionCount = 0;\n\n    struct Acquisition {\n        uint acquisitionId;\n        uint datetime;\n        uint registeredTemperature;\n        bool hasProblems;\n        uint transportId;\n    }\n\n    function addAcquisition(uint _datetime, uint _registeredTemperature, bool _hasProblems, uint _transportId) public {\n        acquisitionCount ++;\n        acquisitions[acquisitionCount] = Acquisition(\n            acquisitionCount,\n            _datetime,\n            _registeredTemperature,\n            _hasProblems,\n            _transportId\n        );\n    }\n\n    function updateTemperature(uint _acquisitionId, uint _registeredTemperature) \n    public {\n        require(_acquisitionId > 0 && _acquisitionId <= acquisitionCount, \"Invalid acquisition ID\");\n        acquisitions[_acquisitionId].registeredTemperature = _registeredTemperature;\n    }\n\n    function updateProblems(uint _acquisitionId, bool _hasProblems) public {\n        require(_acquisitionId > 0 && _acquisitionId <= acquisitionCount, \"Invalid transport ID\");\n        acquisitions[_acquisitionId].hasProblems = _hasProblems;\n    }\n}\n",
  "sourcePath": "/Users/andreacaputo/Desktop/transport/src/contracts/AcquisitionContract.sol",
  "compiler": {
    "name": "solc",
    "version": "0.5.16+commit.9c3226ce.Emscripten.clang"
  },
  "schemaVersion": "3.4.14",
  "updatedAt": "2023-07-17T10:18:07.035Z",
  "networkType": "ethereum",
  "devdoc": {
    "methods": {}
  },
  "userdoc": {
    "methods": {}
  }
}