{
  "contractName": "ProductContract",
  "abi": [
    {
      "constant": true,
      "inputs": [],
      "name": "productCount",
      "outputs": [
        {
          "internalType": "uint256",
          "name": "",
          "type": "uint256"
        }
      ],
      "payable": false,
      "stateMutability": "view",
      "type": "function"
    },
    {
      "constant": true,
      "inputs": [
        {
          "internalType": "uint256",
          "name": "",
          "type": "uint256"
        }
      ],
      "name": "products",
      "outputs": [
        {
          "internalType": "uint256",
          "name": "productId",
          "type": "uint256"
        },
        {
          "internalType": "string",
          "name": "productType",
          "type": "string"
        },
        {
          "internalType": "uint256",
          "name": "idealTemperature",
          "type": "uint256"
        },
        {
          "internalType": "uint256",
          "name": "idealHumidity",
          "type": "uint256"
        }
      ],
      "payable": false,
      "stateMutability": "view",
      "type": "function"
    },
    {
      "constant": false,
      "inputs": [
        {
          "internalType": "string",
          "name": "_productType",
          "type": "string"
        },
        {
          "internalType": "uint256",
          "name": "_idealTemperature",
          "type": "uint256"
        },
        {
          "internalType": "uint256",
          "name": "_idealHumidity",
          "type": "uint256"
        }
      ],
      "name": "addProduct",
      "outputs": [],
      "payable": false,
      "stateMutability": "nonpayable",
      "type": "function"
    },
    {
      "constant": true,
      "inputs": [
        {
          "internalType": "string",
          "name": "_productType",
          "type": "string"
        }
      ],
      "name": "getProductByName",
      "outputs": [
        {
          "internalType": "uint256",
          "name": "",
          "type": "uint256"
        },
        {
          "internalType": "string",
          "name": "",
          "type": "string"
        },
        {
          "internalType": "uint256",
          "name": "",
          "type": "uint256"
        },
        {
          "internalType": "uint256",
          "name": "",
          "type": "uint256"
        }
      ],
      "payable": false,
      "stateMutability": "view",
      "type": "function"
    },
    {
      "constant": true,
      "inputs": [
        {
          "internalType": "uint256",
          "name": "_productId",
          "type": "uint256"
        }
      ],
      "name": "getProductById",
      "outputs": [
        {
          "internalType": "string",
          "name": "productType",
          "type": "string"
        },
        {
          "internalType": "uint256",
          "name": "idealTemperature",
          "type": "uint256"
        },
        {
          "internalType": "uint256",
          "name": "idealHumidity",
          "type": "uint256"
        }
      ],
      "payable": false,
      "stateMutability": "view",
      "type": "function"
    }
  ],
  "bytecode": "0x608060405234801561001057600080fd5b506109c4806100206000396000f3fe608060405234801561001057600080fd5b50600436106100575760003560e01c8063125b0b341461005c5780633f70c2b41461012b5780637acc0b20146101e0578063d4290f831461029c578063e0f6ef87146103e5575b600080fd5b6101296004803603606081101561007257600080fd5b810190808035906020019064010000000081111561008f57600080fd5b8201836020820111156100a157600080fd5b803590602001918460018302840111640100000000831117156100c357600080fd5b91908080601f016020809104026020016040519081016040528093929190818152602001838380828437600081840152601f19601f8201169050808301925050505050505091929192908035906020019092919080359060200190929190505050610403565b005b6101576004803603602081101561014157600080fd5b810190808035906020019092919050505061048f565b6040518080602001848152602001838152602001828103825285818151815260200191508051906020019080838360005b838110156101a3578082015181840152602081019050610188565b50505050905090810190601f1680156101d05780820380516001836020036101000a031916815260200191505b5094505050505060405180910390f35b61020c600480360360208110156101f657600080fd5b8101908080359060200190929190505050610613565b6040518085815260200180602001848152602001838152602001828103825285818151815260200191508051906020019080838360005b8381101561025e578082015181840152602081019050610243565b50505050905090810190601f16801561028b5780820380516001836020036101000a031916815260200191505b509550505050505060405180910390f35b610355600480360360208110156102b257600080fd5b81019080803590602001906401000000008111156102cf57600080fd5b8201836020820111156102e157600080fd5b8035906020019184600183028401116401000000008311171561030357600080fd5b91908080601f016020809104026020016040519081016040528093929190818152602001838380828437600081840152601f19601f8201169050808301925050505050505091929192905050506106db565b6040518085815260200180602001848152602001838152602001828103825285818151815260200191508051906020019080838360005b838110156103a757808201518184015260208101905061038c565b50505050905090810190601f1680156103d45780820380516001836020036101000a031916815260200191505b509550505050505060405180910390f35b6103ed6108bc565b6040518082815260200191505060405180910390f35b600160008154809291906001019190505550604051806080016040528060015481526020018481526020018381526020018281525060008060015481526020019081526020016000206000820151816000015560208201518160010190805190602001906104729291906108c2565b506040820151816002015560608201518160030155905050505050565b606060008060015484111561050c576040517f08c379a00000000000000000000000000000000000000000000000000000000081526004018080602001828103825260128152602001807f496e76616c69642070726f64756374204944000000000000000000000000000081525060200191505060405180910390fd5b610514610942565b60008086815260200190815260200160002060405180608001604052908160008201548152602001600182018054600181600116156101000203166002900480601f0160208091040260200160405190810160405280929190818152602001828054600181600116156101000203166002900480156105d45780601f106105a9576101008083540402835291602001916105d4565b820191906000526020600020905b8154815290600101906020018083116105b757829003601f168201915b50505050508152602001600282015481526020016003820154815250509050806020015181604001518260600151829250935093509350509193909250565b6000602052806000526040600020600091509050806000015490806001018054600181600116156101000203166002900480601f0160208091040260200160405190810160405280929190818152602001828054600181600116156101000203166002900480156106c55780601f1061069a576101008083540402835291602001916106c5565b820191906000526020600020905b8154815290600101906020018083116106a857829003601f168201915b5050505050908060020154908060030154905084565b600060606000806000600190505b600154811161088b578580519060200120600080838152602001908152602001600020600101604051808280546001816001161561010002031660029004801561076a5780601f1061074857610100808354040283529182019161076a565b820191906000526020600020905b815481529060010190602001808311610756575b50509150506040518091039020141561087e57600080828152602001908152602001600020600001546000808381526020019081526020016000206001016000808481526020019081526020016000206002015460008085815260200190815260200160002060030154828054600181600116156101000203166002900480601f0160208091040260200160405190810160405280929190818152602001828054600181600116156101000203166002900480156108695780601f1061083e57610100808354040283529160200191610869565b820191906000526020600020905b81548152906001019060200180831161084c57829003601f168201915b505050505092509450945094509450506108b5565b80806001019150506106e9565b50600080600082925060405180602001604052806000815250919081915080905093509350935093505b9193509193565b60015481565b828054600181600116156101000203166002900490600052602060002090601f016020900481019282601f1061090357805160ff1916838001178555610931565b82800160010185558215610931579182015b82811115610930578251825591602001919060010190610915565b5b50905061093e919061096a565b5090565b6040518060800160405280600081526020016060815260200160008152602001600081525090565b61098c91905b80821115610988576000816000905550600101610970565b5090565b9056fea265627a7a72315820dac69ca659ed9d7456a4277e7771093e269cbffef47534dd9e3db9959ce9924664736f6c63430005100032",
  "source": "// SPDX-License-Identifier: MIT\npragma solidity ^0.5.0;\n\ncontract ProductContract {\n    struct Product {\n        uint productId;\n        string productType;\n        uint idealTemperature;\n        uint idealHumidity;\n    }\n\n    mapping(uint => Product) public products;\n    uint public productCount;\n\n    function addProduct(string memory _productType, uint _idealTemperature, uint _idealHumidity) public {\n        productCount++;\n        products[productCount] = Product(\n            productCount,\n            _productType,\n            _idealTemperature,\n            _idealHumidity\n        );\n    }\n\n    function getProductByName(string memory _productType) public view returns (uint, string memory, uint, uint) {\n        for (uint i = 1; i <= productCount; i++) {\n            //stringhe in Solidity non possono essere confrontate direttamente usando l'operatore di uguaglianza\n            if (keccak256(bytes(products[i].productType)) == keccak256(bytes(_productType))) {\n                return (\n                    products[i].productId,\n                    products[i].productType,\n                    products[i].idealTemperature,\n                    products[i].idealHumidity\n                );\n            }\n        }\n        return (0, \"\", 0, 0);\n    }\n\n    function getProductById(uint _productId) public view returns (string memory productType, uint idealTemperature, uint idealHumidity) {\n        // Make sure the transport has a valid id\n        require(_productId <= productCount, \"Invalid product ID\");\n\n        Product memory _product = products[_productId];\n        return (\n            _product.productType,\n            _product.idealTemperature,\n            _product.idealHumidity\n        );\n    }\n}\n",
  "sourcePath": "/Users/andreacaputo/Desktop/transport/src/contracts/ProductContract.sol",
  "compiler": {
    "name": "solc",
    "version": "0.5.16+commit.9c3226ce.Emscripten.clang"
  },
  "schemaVersion": "3.4.14",
  "updatedAt": "2023-07-20T09:39:25.531Z",
  "networkType": "ethereum",
  "devdoc": {
    "methods": {}
  },
  "userdoc": {
    "methods": {}
  }
}