{
  "contractName": "ProductContract",
  "abi": [
    {
      "constant": true,
      "inputs": [],
      "name": "productCount",
      "outputs": [
        {
          "internalType": "uint256",
          "name": "",
          "type": "uint256"
        }
      ],
      "payable": false,
      "stateMutability": "view",
      "type": "function"
    },
    {
      "constant": true,
      "inputs": [
        {
          "internalType": "uint256",
          "name": "",
          "type": "uint256"
        }
      ],
      "name": "products",
      "outputs": [
        {
          "internalType": "uint256",
          "name": "productId",
          "type": "uint256"
        },
        {
          "internalType": "string",
          "name": "productType",
          "type": "string"
        },
        {
          "internalType": "uint256",
          "name": "idealTemperature",
          "type": "uint256"
        }
      ],
      "payable": false,
      "stateMutability": "view",
      "type": "function"
    },
    {
      "constant": false,
      "inputs": [
        {
          "internalType": "string",
          "name": "_productType",
          "type": "string"
        },
        {
          "internalType": "uint256",
          "name": "_idealTemperature",
          "type": "uint256"
        }
      ],
      "name": "addProduct",
      "outputs": [],
      "payable": false,
      "stateMutability": "nonpayable",
      "type": "function"
    },
    {
      "constant": true,
      "inputs": [
        {
          "internalType": "string",
          "name": "_productType",
          "type": "string"
        }
      ],
      "name": "getProductByName",
      "outputs": [
        {
          "internalType": "uint256",
          "name": "",
          "type": "uint256"
        },
        {
          "internalType": "string",
          "name": "",
          "type": "string"
        },
        {
          "internalType": "uint256",
          "name": "",
          "type": "uint256"
        }
      ],
      "payable": false,
      "stateMutability": "view",
      "type": "function"
    }
  ],
  "bytecode": "0x608060405234801561001057600080fd5b50610707806100206000396000f3fe608060405234801561001057600080fd5b506004361061004c5760003560e01c80637acc0b2014610051578063b15247d914610106578063d4290f83146101cb578063e0f6ef871461030d575b600080fd5b61007d6004803603602081101561006757600080fd5b810190808035906020019092919050505061032b565b6040518084815260200180602001838152602001828103825284818151815260200191508051906020019080838360005b838110156100c95780820151818401526020810190506100ae565b50505050905090810190601f1680156100f65780820380516001836020036101000a031916815260200191505b5094505050505060405180910390f35b6101c96004803603604081101561011c57600080fd5b810190808035906020019064010000000081111561013957600080fd5b82018360208201111561014b57600080fd5b8035906020019184600183028401116401000000008311171561016d57600080fd5b91908080601f016020809104026020016040519081016040528093929190818152602001838380828437600081840152601f19601f820116905080830192505050505050509192919290803590602001909291905050506103ed565b005b610284600480360360208110156101e157600080fd5b81019080803590602001906401000000008111156101fe57600080fd5b82018360208201111561021057600080fd5b8035906020019184600183028401116401000000008311171561023257600080fd5b91908080601f016020809104026020016040519081016040528093929190818152602001838380828437600081840152601f19601f820116905080830192505050505050509192919290505050610468565b6040518084815260200180602001838152602001828103825284818151815260200191508051906020019080838360005b838110156102d05780820151818401526020810190506102b5565b50505050905090810190601f1680156102fd5780820380516001836020036101000a031916815260200191505b5094505050505060405180910390f35b610315610627565b6040518082815260200191505060405180910390f35b6000602052806000526040600020600091509050806000015490806001018054600181600116156101000203166002900480601f0160208091040260200160405190810160405280929190818152602001828054600181600116156101000203166002900480156103dd5780601f106103b2576101008083540402835291602001916103dd565b820191906000526020600020905b8154815290600101906020018083116103c057829003601f168201915b5050505050908060020154905083565b6001600081548092919060010191905055506040518060600160405280600154815260200183815260200182815250600080600154815260200190815260200160002060008201518160000155602082015181600101908051906020019061045692919061062d565b50604082015181600201559050505050565b60006060600080600190505b60015481116105fe57848051906020012060008083815260200190815260200160002060010160405180828054600181600116156101000203166002900480156104f55780601f106104d35761010080835404028352918201916104f5565b820191906000526020600020905b8154815290600101906020018083116104e1575b5050915050604051809103902014156105f1576000808281526020019081526020016000206000015460008083815260200190815260200160002060010160008084815260200190815260200160002060020154818054600181600116156101000203166002900480601f0160208091040260200160405190810160405280929190818152602001828054600181600116156101000203166002900480156105de5780601f106105b3576101008083540402835291602001916105de565b820191906000526020600020905b8154815290600101906020018083116105c157829003601f168201915b5050505050915093509350935050610620565b8080600101915050610474565b5060008081915060405180602001604052806000815250908090509250925092505b9193909250565b60015481565b828054600181600116156101000203166002900490600052602060002090601f016020900481019282601f1061066e57805160ff191683800117855561069c565b8280016001018555821561069c579182015b8281111561069b578251825591602001919060010190610680565b5b5090506106a991906106ad565b5090565b6106cf91905b808211156106cb5760008160009055506001016106b3565b5090565b9056fea265627a7a7231582021ec5505b125a078a5ea8fe6930e2d4545c9ecdef7d3cf915c33e855b72a5f2364736f6c63430005100032",
  "source": "// SPDX-License-Identifier: MIT\npragma solidity ^0.5.0;\n\ncontract ProductContract {\n    struct Product {\n        uint productId;\n        string productType;\n        uint idealTemperature;\n    }\n\n    mapping(uint => Product) public products;\n    uint public productCount;\n\n    function addProduct(string memory _productType, uint _idealTemperature) public {\n        productCount++;\n        products[productCount] = Product(\n            productCount,\n            _productType,\n            _idealTemperature\n        );\n    }\n\n    function getProductByName(string memory _productType) public view returns (uint, string memory, uint) {\n        for (uint i = 1; i <= productCount; i++) {\n            //stringhe in Solidity non possono essere confrontate direttamente usando l'operatore di uguaglianza\n            if (keccak256(bytes(products[i].productType)) == keccak256(bytes(_productType))) {\n                return (\n                    products[i].productId,\n                    products[i].productType,\n                    products[i].idealTemperature\n                );\n            }\n        }\n        return (0, \"\", 0);\n    }\n}\n",
  "sourcePath": "/Users/andreacaputo/Desktop/transportV2/src/contracts/ProductContract.sol",
  "compiler": {
    "name": "solc",
    "version": "0.5.16+commit.9c3226ce.Emscripten.clang"
  },
  "schemaVersion": "3.4.14",
  "updatedAt": "2023-07-18T13:47:50.060Z",
  "networkType": "ethereum",
  "devdoc": {
    "methods": {}
  },
  "userdoc": {
    "methods": {}
  }
}