{
  "contractName": "ProductContract",
  "abi": [
    {
      "constant": true,
      "inputs": [],
      "name": "productCount",
      "outputs": [
        {
          "internalType": "uint256",
          "name": "",
          "type": "uint256"
        }
      ],
      "payable": false,
      "stateMutability": "view",
      "type": "function"
    },
    {
      "constant": true,
      "inputs": [
        {
          "internalType": "uint256",
          "name": "",
          "type": "uint256"
        }
      ],
      "name": "products",
      "outputs": [
        {
          "internalType": "uint256",
          "name": "productId",
          "type": "uint256"
        },
        {
          "internalType": "string",
          "name": "productType",
          "type": "string"
        },
        {
          "internalType": "uint256",
          "name": "idealTemperature",
          "type": "uint256"
        },
        {
          "internalType": "uint256",
          "name": "idealHumidity",
          "type": "uint256"
        }
      ],
      "payable": false,
      "stateMutability": "view",
      "type": "function"
    },
    {
      "constant": false,
      "inputs": [
        {
          "internalType": "string",
          "name": "_productType",
          "type": "string"
        },
        {
          "internalType": "uint256",
          "name": "_idealTemperature",
          "type": "uint256"
        },
        {
          "internalType": "uint256",
          "name": "_idealHumidity",
          "type": "uint256"
        }
      ],
      "name": "addProduct",
      "outputs": [],
      "payable": false,
      "stateMutability": "nonpayable",
      "type": "function"
    },
    {
      "constant": true,
      "inputs": [
        {
          "internalType": "uint256",
          "name": "_productId",
          "type": "uint256"
        }
      ],
      "name": "getProductById",
      "outputs": [
        {
          "internalType": "string",
          "name": "productType",
          "type": "string"
        },
        {
          "internalType": "uint256",
          "name": "idealTemperature",
          "type": "uint256"
        },
        {
          "internalType": "uint256",
          "name": "idealHumidity",
          "type": "uint256"
        }
      ],
      "payable": false,
      "stateMutability": "view",
      "type": "function"
    }
  ],
  "bytecode": "0x608060405234801561001057600080fd5b5061068f806100206000396000f3fe608060405234801561001057600080fd5b506004361061004c5760003560e01c8063125b0b34146100515780633f70c2b4146101205780637acc0b20146101d5578063e0f6ef8714610291575b600080fd5b61011e6004803603606081101561006757600080fd5b810190808035906020019064010000000081111561008457600080fd5b82018360208201111561009657600080fd5b803590602001918460018302840111640100000000831117156100b857600080fd5b91908080601f016020809104026020016040519081016040528093929190818152602001838380828437600081840152601f19601f82011690508083019250505050505050919291929080359060200190929190803590602001909291905050506102af565b005b61014c6004803603602081101561013657600080fd5b810190808035906020019092919050505061033b565b6040518080602001848152602001838152602001828103825285818151815260200191508051906020019080838360005b8381101561019857808201518184015260208101905061017d565b50505050905090810190601f1680156101c55780820380516001836020036101000a031916815260200191505b5094505050505060405180910390f35b610201600480360360208110156101eb57600080fd5b81019080803590602001909291905050506104bf565b6040518085815260200180602001848152602001838152602001828103825285818151815260200191508051906020019080838360005b83811015610253578082015181840152602081019050610238565b50505050905090810190601f1680156102805780820380516001836020036101000a031916815260200191505b509550505050505060405180910390f35b610299610587565b6040518082815260200191505060405180910390f35b6001600081548092919060010191905055506040518060800160405280600154815260200184815260200183815260200182815250600080600154815260200190815260200160002060008201518160000155602082015181600101908051906020019061031e92919061058d565b506040820151816002015560608201518160030155905050505050565b60606000806001548411156103b8576040517f08c379a00000000000000000000000000000000000000000000000000000000081526004018080602001828103825260128152602001807f496e76616c69642070726f64756374204944000000000000000000000000000081525060200191505060405180910390fd5b6103c061060d565b60008086815260200190815260200160002060405180608001604052908160008201548152602001600182018054600181600116156101000203166002900480601f0160208091040260200160405190810160405280929190818152602001828054600181600116156101000203166002900480156104805780601f1061045557610100808354040283529160200191610480565b820191906000526020600020905b81548152906001019060200180831161046357829003601f168201915b50505050508152602001600282015481526020016003820154815250509050806020015181604001518260600151829250935093509350509193909250565b6000602052806000526040600020600091509050806000015490806001018054600181600116156101000203166002900480601f0160208091040260200160405190810160405280929190818152602001828054600181600116156101000203166002900480156105715780601f1061054657610100808354040283529160200191610571565b820191906000526020600020905b81548152906001019060200180831161055457829003601f168201915b5050505050908060020154908060030154905084565b60015481565b828054600181600116156101000203166002900490600052602060002090601f016020900481019282601f106105ce57805160ff19168380011785556105fc565b828001600101855582156105fc579182015b828111156105fb5782518255916020019190600101906105e0565b5b5090506106099190610635565b5090565b6040518060800160405280600081526020016060815260200160008152602001600081525090565b61065791905b8082111561065357600081600090555060010161063b565b5090565b9056fea265627a7a72315820fe3741d6459ad3486b11981376449e36a1e6259e05d5ed1c095bd2ced110fb2d64736f6c63430005100032",
  "source": "// SPDX-License-Identifier: MIT\npragma solidity ^0.5.0;\n\ncontract ProductContract {\n    struct Product {\n        uint productId;\n        string productType;\n        uint idealTemperature;\n        uint idealHumidity;\n    }\n\n    mapping(uint => Product) public products;\n    uint public productCount;\n\n    function addProduct(string memory _productType, uint _idealTemperature, uint _idealHumidity) public {\n        productCount++;\n        products[productCount] = Product(\n            productCount,\n            _productType,\n            _idealTemperature,\n            _idealHumidity\n        );\n}\n\n    function getProductById(uint _productId) public view returns (string memory productType, uint idealTemperature, uint idealHumidity) {\n        // Make sure the transport has a valid id\n        require(_productId <= productCount, \"Invalid product ID\");\n\n        Product memory _product = products[_productId];\n        return (\n            _product.productType,\n            _product.idealTemperature,\n            _product.idealHumidity\n        );\n    }\n}\n",
  "sourcePath": "/Users/andreacaputo/Desktop/transport/src/contracts/ProductContract.sol",
  "compiler": {
    "name": "solc",
    "version": "0.5.16+commit.9c3226ce.Emscripten.clang"
  },
  "schemaVersion": "3.4.14",
  "updatedAt": "2023-07-27T13:45:31.559Z",
  "networkType": "ethereum",
  "devdoc": {
    "methods": {}
  },
  "userdoc": {
    "methods": {}
  }
}