{
  "contractName": "TransportContract",
  "abi": [
    {
      "constant": true,
      "inputs": [],
      "name": "transportCount",
      "outputs": [
        {
          "internalType": "uint256",
          "name": "",
          "type": "uint256"
        }
      ],
      "payable": false,
      "stateMutability": "view",
      "type": "function"
    },
    {
      "constant": true,
      "inputs": [
        {
          "internalType": "uint256",
          "name": "",
          "type": "uint256"
        }
      ],
      "name": "transports",
      "outputs": [
        {
          "internalType": "uint256",
          "name": "transportId",
          "type": "uint256"
        },
        {
          "internalType": "string",
          "name": "departurePlace",
          "type": "string"
        },
        {
          "internalType": "string",
          "name": "arrivalPlace",
          "type": "string"
        },
        {
          "internalType": "string",
          "name": "transportState",
          "type": "string"
        },
        {
          "internalType": "uint256",
          "name": "productId",
          "type": "uint256"
        }
      ],
      "payable": false,
      "stateMutability": "view",
      "type": "function"
    },
    {
      "constant": false,
      "inputs": [
        {
          "internalType": "string",
          "name": "_departurePlace",
          "type": "string"
        },
        {
          "internalType": "string",
          "name": "_arrivalPlace",
          "type": "string"
        },
        {
          "internalType": "uint256",
          "name": "_productId",
          "type": "uint256"
        }
      ],
      "name": "addTransport",
      "outputs": [],
      "payable": false,
      "stateMutability": "nonpayable",
      "type": "function"
    },
    {
      "constant": true,
      "inputs": [
        {
          "internalType": "uint256",
          "name": "_transportId",
          "type": "uint256"
        }
      ],
      "name": "getTransportByID",
      "outputs": [
        {
          "internalType": "uint256",
          "name": "transportId",
          "type": "uint256"
        },
        {
          "internalType": "string",
          "name": "departurePlace",
          "type": "string"
        },
        {
          "internalType": "string",
          "name": "arrivalPlace",
          "type": "string"
        },
        {
          "internalType": "string",
          "name": "transportState",
          "type": "string"
        },
        {
          "internalType": "uint256",
          "name": "productId",
          "type": "uint256"
        }
      ],
      "payable": false,
      "stateMutability": "view",
      "type": "function"
    }
  ],
  "bytecode": "0x6080604052600060015534801561001557600080fd5b50610bc7806100256000396000f3fe608060405234801561001057600080fd5b506004361061004c5760003560e01c806336eaa6b4146100515780639bae0328146101de578063b13c499f1461036b578063bd72a54b14610389575b600080fd5b61007d6004803603602081101561006757600080fd5b81019080803590602001909291905050506104e5565b60405180868152602001806020018060200180602001858152602001848103845288818151815260200191508051906020019080838360005b838110156100d15780820151818401526020810190506100b6565b50505050905090810190601f1680156100fe5780820380516001836020036101000a031916815260200191505b50848103835287818151815260200191508051906020019080838360005b8381101561013757808201518184015260208101905061011c565b50505050905090810190601f1680156101645780820380516001836020036101000a031916815260200191505b50848103825286818151815260200191508051906020019080838360005b8381101561019d578082015181840152602081019050610182565b50505050905090810190601f1680156101ca5780820380516001836020036101000a031916815260200191505b509850505050505050505060405180910390f35b61020a600480360360208110156101f457600080fd5b81019080803590602001909291905050506107bd565b60405180868152602001806020018060200180602001858152602001848103845288818151815260200191508051906020019080838360005b8381101561025e578082015181840152602081019050610243565b50505050905090810190601f16801561028b5780820380516001836020036101000a031916815260200191505b50848103835287818151815260200191508051906020019080838360005b838110156102c45780820151818401526020810190506102a9565b50505050905090810190601f1680156102f15780820380516001836020036101000a031916815260200191505b50848103825286818151815260200191508051906020019080838360005b8381101561032a57808201518184015260208101905061030f565b50505050905090810190601f1680156103575780820380516001836020036101000a031916815260200191505b509850505050505050505060405180910390f35b6103736109bb565b6040518082815260200191505060405180910390f35b6104e36004803603606081101561039f57600080fd5b81019080803590602001906401000000008111156103bc57600080fd5b8201836020820111156103ce57600080fd5b803590602001918460018302840111640100000000831117156103f057600080fd5b91908080601f016020809104026020016040519081016040528093929190818152602001838380828437600081840152601f19601f8201169050808301925050505050505091929192908035906020019064010000000081111561045357600080fd5b82018360208201111561046557600080fd5b8035906020019184600183028401116401000000008311171561048757600080fd5b91908080601f016020809104026020016040519081016040528093929190818152602001838380828437600081840152601f19601f820116905080830192505050505050509192919290803590602001909291905050506109c1565b005b600060608060606000600154861115610566576040517f08c379a00000000000000000000000000000000000000000000000000000000081526004018080602001828103825260148152602001807f496e76616c6964207472616e73706f727420494400000000000000000000000081525060200191505060405180910390fd5b61056e610abe565b6000808881526020019081526020016000206040518060a001604052908160008201548152602001600182018054600181600116156101000203166002900480601f01602080910402602001604051908101604052809291908181526020018280546001816001161561010002031660029004801561062e5780601f106106035761010080835404028352916020019161062e565b820191906000526020600020905b81548152906001019060200180831161061157829003601f168201915b50505050508152602001600282018054600181600116156101000203166002900480601f0160208091040260200160405190810160405280929190818152602001828054600181600116156101000203166002900480156106d05780601f106106a5576101008083540402835291602001916106d0565b820191906000526020600020905b8154815290600101906020018083116106b357829003601f168201915b50505050508152602001600382018054600181600116156101000203166002900480601f0160208091040260200160405190810160405280929190818152602001828054600181600116156101000203166002900480156107725780601f1061074757610100808354040283529160200191610772565b820191906000526020600020905b81548152906001019060200180831161075557829003601f168201915b50505050508152602001600482015481525050905080600001518160200151826040015183606001518460800151839350829250819150955095509550955095505091939590929450565b6000602052806000526040600020600091509050806000015490806001018054600181600116156101000203166002900480601f01602080910402602001604051908101604052809291908181526020018280546001816001161561010002031660029004801561086f5780601f106108445761010080835404028352916020019161086f565b820191906000526020600020905b81548152906001019060200180831161085257829003601f168201915b505050505090806002018054600181600116156101000203166002900480601f01602080910402602001604051908101604052809291908181526020018280546001816001161561010002031660029004801561090d5780601f106108e25761010080835404028352916020019161090d565b820191906000526020600020905b8154815290600101906020018083116108f057829003601f168201915b505050505090806003018054600181600116156101000203166002900480601f0160208091040260200160405190810160405280929190818152602001828054600181600116156101000203166002900480156109ab5780601f10610980576101008083540402835291602001916109ab565b820191906000526020600020905b81548152906001019060200180831161098e57829003601f168201915b5050505050908060040154905085565b60015481565b60016000815480929190600101919050555060606040518060400160405280600d81526020017f496e2073706564697a696f6e650000000000000000000000000000000000000081525090506040518060a001604052806001548152602001858152602001848152602001828152602001838152506000806001548152602001908152602001600020600082015181600001556020820151816001019080519060200190610a70929190610aed565b506040820151816002019080519060200190610a8d929190610aed565b506060820151816003019080519060200190610aaa929190610aed565b506080820151816004015590505050505050565b6040518060a0016040528060008152602001606081526020016060815260200160608152602001600081525090565b828054600181600116156101000203166002900490600052602060002090601f016020900481019282601f10610b2e57805160ff1916838001178555610b5c565b82800160010185558215610b5c579182015b82811115610b5b578251825591602001919060010190610b40565b5b509050610b699190610b6d565b5090565b610b8f91905b80821115610b8b576000816000905550600101610b73565b5090565b9056fea265627a7a72315820cff0ca89c5ec981a675f36b2001f230c47d602c2ca5df2365efea43158232fa664736f6c63430005100032",
  "source": "// SPDX-License-Identifier: MIT\n\npragma solidity ^0.5.0;\n\ncontract TransportContract {\n    mapping(uint => Transport) public transports;\n    uint public transportCount = 0;\n\n    struct Transport {\n        uint transportId;\n        string departurePlace;\n        string arrivalPlace;\n        string transportState;\n        uint productId;\n    }\n\n    function addTransport(string memory _departurePlace, string memory _arrivalPlace, uint _productId) public {\n        transportCount ++;\n        string memory transportState = \"In spedizione\";\n        transports[transportCount] = Transport(\n            transportCount,\n            _departurePlace,\n            _arrivalPlace,\n            transportState,\n            _productId\n        );\n    }\n\n    function getTransportByID(uint _transportId) public view returns (\n        uint transportId,\n        string memory departurePlace,\n        string memory arrivalPlace,\n        string memory transportState,\n        uint productId\n\n    ) {\n        // Make sure the transport has a valid id\n        require(_transportId <= transportCount, \"Invalid transport ID\");\n\n        Transport memory _transport = transports[_transportId];\n        return (\n            _transport.transportId,\n            _transport.departurePlace,\n            _transport.arrivalPlace,\n            _transport.transportState,\n            _transport.productId\n        );\n    }\n}\n",
  "sourcePath": "/Users/andreacaputo/Desktop/transport/src/contracts/TransportContract.sol",
  "compiler": {
    "name": "solc",
    "version": "0.5.16+commit.9c3226ce.Emscripten.clang"
  },
  "schemaVersion": "3.4.14",
  "updatedAt": "2023-07-17T10:18:07.017Z",
  "networkType": "ethereum",
  "devdoc": {
    "methods": {}
  },
  "userdoc": {
    "methods": {}
  }
}