{
  "contractName": "TransportContract",
  "abi": [
    {
      "constant": true,
      "inputs": [],
      "name": "transportCount",
      "outputs": [
        {
          "internalType": "uint256",
          "name": "",
          "type": "uint256"
        }
      ],
      "payable": false,
      "stateMutability": "view",
      "type": "function"
    },
    {
      "constant": true,
      "inputs": [
        {
          "internalType": "uint256",
          "name": "",
          "type": "uint256"
        }
      ],
      "name": "transports",
      "outputs": [
        {
          "internalType": "uint256",
          "name": "transportId",
          "type": "uint256"
        },
        {
          "internalType": "string",
          "name": "departurePlace",
          "type": "string"
        },
        {
          "internalType": "string",
          "name": "arrivalPlace",
          "type": "string"
        },
        {
          "internalType": "string",
          "name": "transportState",
          "type": "string"
        },
        {
          "internalType": "uint256",
          "name": "productId",
          "type": "uint256"
        }
      ],
      "payable": false,
      "stateMutability": "view",
      "type": "function"
    },
    {
      "constant": false,
      "inputs": [
        {
          "internalType": "string",
          "name": "_departurePlace",
          "type": "string"
        },
        {
          "internalType": "string",
          "name": "_arrivalPlace",
          "type": "string"
        },
        {
          "internalType": "string",
          "name": "transportState",
          "type": "string"
        },
        {
          "internalType": "uint256",
          "name": "_productId",
          "type": "uint256"
        }
      ],
      "name": "addTransport",
      "outputs": [],
      "payable": false,
      "stateMutability": "nonpayable",
      "type": "function"
    },
    {
      "constant": true,
      "inputs": [
        {
          "internalType": "uint256",
          "name": "_transportId",
          "type": "uint256"
        }
      ],
      "name": "getTransportByID",
      "outputs": [
        {
          "internalType": "uint256",
          "name": "transportId",
          "type": "uint256"
        },
        {
          "internalType": "string",
          "name": "departurePlace",
          "type": "string"
        },
        {
          "internalType": "string",
          "name": "arrivalPlace",
          "type": "string"
        },
        {
          "internalType": "string",
          "name": "transportState",
          "type": "string"
        },
        {
          "internalType": "uint256",
          "name": "productId",
          "type": "uint256"
        }
      ],
      "payable": false,
      "stateMutability": "view",
      "type": "function"
    }
  ],
  "bytecode": "0x6080604052600060015534801561001557600080fd5b50610c24806100256000396000f3fe608060405234801561001057600080fd5b506004361061004c5760003560e01c806336eaa6b4146100515780639bae0328146101de578063ae08b6ff1461036b578063b13c499f1461055e575b600080fd5b61007d6004803603602081101561006757600080fd5b810190808035906020019092919050505061057c565b60405180868152602001806020018060200180602001858152602001848103845288818151815260200191508051906020019080838360005b838110156100d15780820151818401526020810190506100b6565b50505050905090810190601f1680156100fe5780820380516001836020036101000a031916815260200191505b50848103835287818151815260200191508051906020019080838360005b8381101561013757808201518184015260208101905061011c565b50505050905090810190601f1680156101645780820380516001836020036101000a031916815260200191505b50848103825286818151815260200191508051906020019080838360005b8381101561019d578082015181840152602081019050610182565b50505050905090810190601f1680156101ca5780820380516001836020036101000a031916815260200191505b509850505050505050505060405180910390f35b61020a600480360360208110156101f457600080fd5b8101908080359060200190929190505050610854565b60405180868152602001806020018060200180602001858152602001848103845288818151815260200191508051906020019080838360005b8381101561025e578082015181840152602081019050610243565b50505050905090810190601f16801561028b5780820380516001836020036101000a031916815260200191505b50848103835287818151815260200191508051906020019080838360005b838110156102c45780820151818401526020810190506102a9565b50505050905090810190601f1680156102f15780820380516001836020036101000a031916815260200191505b50848103825286818151815260200191508051906020019080838360005b8381101561032a57808201518184015260208101905061030f565b50505050905090810190601f1680156103575780820380516001836020036101000a031916815260200191505b509850505050505050505060405180910390f35b61055c6004803603608081101561038157600080fd5b810190808035906020019064010000000081111561039e57600080fd5b8201836020820111156103b057600080fd5b803590602001918460018302840111640100000000831117156103d257600080fd5b91908080601f016020809104026020016040519081016040528093929190818152602001838380828437600081840152601f19601f8201169050808301925050505050505091929192908035906020019064010000000081111561043557600080fd5b82018360208201111561044757600080fd5b8035906020019184600183028401116401000000008311171561046957600080fd5b91908080601f016020809104026020016040519081016040528093929190818152602001838380828437600081840152601f19601f820116905080830192505050505050509192919290803590602001906401000000008111156104cc57600080fd5b8201836020820111156104de57600080fd5b8035906020019184600183028401116401000000008311171561050057600080fd5b91908080601f016020809104026020016040519081016040528093929190818152602001838380828437600081840152601f19601f82011690508083019250505050505050919291929080359060200190929190505050610a52565b005b610566610b15565b6040518082815260200191505060405180910390f35b6000606080606060006001548611156105fd576040517f08c379a00000000000000000000000000000000000000000000000000000000081526004018080602001828103825260148152602001807f496e76616c6964207472616e73706f727420494400000000000000000000000081525060200191505060405180910390fd5b610605610b1b565b6000808881526020019081526020016000206040518060a001604052908160008201548152602001600182018054600181600116156101000203166002900480601f0160208091040260200160405190810160405280929190818152602001828054600181600116156101000203166002900480156106c55780601f1061069a576101008083540402835291602001916106c5565b820191906000526020600020905b8154815290600101906020018083116106a857829003601f168201915b50505050508152602001600282018054600181600116156101000203166002900480601f0160208091040260200160405190810160405280929190818152602001828054600181600116156101000203166002900480156107675780601f1061073c57610100808354040283529160200191610767565b820191906000526020600020905b81548152906001019060200180831161074a57829003601f168201915b50505050508152602001600382018054600181600116156101000203166002900480601f0160208091040260200160405190810160405280929190818152602001828054600181600116156101000203166002900480156108095780601f106107de57610100808354040283529160200191610809565b820191906000526020600020905b8154815290600101906020018083116107ec57829003601f168201915b50505050508152602001600482015481525050905080600001518160200151826040015183606001518460800151839350829250819150955095509550955095505091939590929450565b6000602052806000526040600020600091509050806000015490806001018054600181600116156101000203166002900480601f0160208091040260200160405190810160405280929190818152602001828054600181600116156101000203166002900480156109065780601f106108db57610100808354040283529160200191610906565b820191906000526020600020905b8154815290600101906020018083116108e957829003601f168201915b505050505090806002018054600181600116156101000203166002900480601f0160208091040260200160405190810160405280929190818152602001828054600181600116156101000203166002900480156109a45780601f10610979576101008083540402835291602001916109a4565b820191906000526020600020905b81548152906001019060200180831161098757829003601f168201915b505050505090806003018054600181600116156101000203166002900480601f016020809104026020016040519081016040528092919081815260200182805460018160011615610100020316600290048015610a425780601f10610a1757610100808354040283529160200191610a42565b820191906000526020600020905b815481529060010190602001808311610a2557829003601f168201915b5050505050908060040154905085565b6001600081548092919060010191905055506040518060a001604052806001548152602001858152602001848152602001838152602001828152506000806001548152602001908152602001600020600082015181600001556020820151816001019080519060200190610ac7929190610b4a565b506040820151816002019080519060200190610ae4929190610b4a565b506060820151816003019080519060200190610b01929190610b4a565b506080820151816004015590505050505050565b60015481565b6040518060a0016040528060008152602001606081526020016060815260200160608152602001600081525090565b828054600181600116156101000203166002900490600052602060002090601f016020900481019282601f10610b8b57805160ff1916838001178555610bb9565b82800160010185558215610bb9579182015b82811115610bb8578251825591602001919060010190610b9d565b5b509050610bc69190610bca565b5090565b610bec91905b80821115610be8576000816000905550600101610bd0565b5090565b9056fea265627a7a72315820e0c34257ffbac894f1a5a116119895d0cd4b5e303edf5e2765034cece294822864736f6c63430005100032",
  "source": "// SPDX-License-Identifier: MIT\n\npragma solidity ^0.5.0;\n\ncontract TransportContract {\n    mapping(uint => Transport) public transports;\n    uint public transportCount = 0;\n\n    struct Transport {\n        uint transportId;\n        string departurePlace;\n        string arrivalPlace;\n        string transportState;\n        uint productId;\n    }\n\n    function addTransport(string memory _departurePlace, string memory _arrivalPlace, string memory transportState, uint _productId) public {\n        transportCount ++;\n        transports[transportCount] = Transport(\n            transportCount,\n            _departurePlace,\n            _arrivalPlace,\n            transportState,\n            _productId\n        );\n    }\n\n    function getTransportByID(uint _transportId) public view returns (\n        uint transportId,\n        string memory departurePlace,\n        string memory arrivalPlace,\n        string memory transportState,\n        uint productId\n\n    ) {\n        // Make sure the transport has a valid id\n        require(_transportId <= transportCount, \"Invalid transport ID\");\n\n        Transport memory _transport = transports[_transportId];\n        return (\n            _transport.transportId,\n            _transport.departurePlace,\n            _transport.arrivalPlace,\n            _transport.transportState,\n            _transport.productId\n        );\n    }\n}\n",
  "sourcePath": "/Users/andreacaputo/Desktop/transportV2/src/contracts/TransportContract.sol",
  "compiler": {
    "name": "solc",
    "version": "0.5.16+commit.9c3226ce.Emscripten.clang"
  },
  "schemaVersion": "3.4.14",
  "updatedAt": "2023-07-18T13:47:50.035Z",
  "networkType": "ethereum",
  "devdoc": {
    "methods": {}
  },
  "userdoc": {
    "methods": {}
  }
}