{
  "contractName": "TransportContract",
  "abi": [
    {
      "constant": true,
      "inputs": [],
      "name": "transportCount",
      "outputs": [
        {
          "internalType": "uint256",
          "name": "",
          "type": "uint256"
        }
      ],
      "payable": false,
      "stateMutability": "view",
      "type": "function"
    },
    {
      "constant": true,
      "inputs": [
        {
          "internalType": "uint256",
          "name": "",
          "type": "uint256"
        }
      ],
      "name": "transports",
      "outputs": [
        {
          "internalType": "uint256",
          "name": "transportId",
          "type": "uint256"
        },
        {
          "internalType": "string",
          "name": "departurePlace",
          "type": "string"
        },
        {
          "internalType": "string",
          "name": "arrivalPlace",
          "type": "string"
        },
        {
          "internalType": "string",
          "name": "transportState",
          "type": "string"
        },
        {
          "internalType": "uint256",
          "name": "productId",
          "type": "uint256"
        }
      ],
      "payable": false,
      "stateMutability": "view",
      "type": "function"
    },
    {
      "constant": false,
      "inputs": [
        {
          "internalType": "string",
          "name": "_departurePlace",
          "type": "string"
        },
        {
          "internalType": "string",
          "name": "_arrivalPlace",
          "type": "string"
        },
        {
          "internalType": "uint256",
          "name": "_productId",
          "type": "uint256"
        }
      ],
      "name": "addTransport",
      "outputs": [],
      "payable": false,
      "stateMutability": "nonpayable",
      "type": "function"
    },
    {
      "constant": false,
      "inputs": [
        {
          "internalType": "uint256",
          "name": "transportId",
          "type": "uint256"
        }
      ],
      "name": "updateTransportStateShipped",
      "outputs": [],
      "payable": false,
      "stateMutability": "nonpayable",
      "type": "function"
    },
    {
      "constant": false,
      "inputs": [
        {
          "internalType": "uint256",
          "name": "transportId",
          "type": "uint256"
        }
      ],
      "name": "updateTransportStateDelivered",
      "outputs": [],
      "payable": false,
      "stateMutability": "nonpayable",
      "type": "function"
    },
    {
      "constant": true,
      "inputs": [
        {
          "internalType": "uint256",
          "name": "_transportId",
          "type": "uint256"
        }
      ],
      "name": "getTransportByID",
      "outputs": [
        {
          "internalType": "uint256",
          "name": "transportId",
          "type": "uint256"
        },
        {
          "internalType": "string",
          "name": "departurePlace",
          "type": "string"
        },
        {
          "internalType": "string",
          "name": "arrivalPlace",
          "type": "string"
        },
        {
          "internalType": "string",
          "name": "transportState",
          "type": "string"
        },
        {
          "internalType": "uint256",
          "name": "productId",
          "type": "uint256"
        }
      ],
      "payable": false,
      "stateMutability": "view",
      "type": "function"
    }
  ],
  "bytecode": "0x6080604052600060015534801561001557600080fd5b50610e79806100256000396000f3fe608060405234801561001057600080fd5b50600436106100625760003560e01c806336eaa6b4146100675780639bae0328146101f4578063b13c499f14610381578063bd72a54b1461039f578063fa1ea79e146104fb578063fe9de06614610529575b600080fd5b6100936004803603602081101561007d57600080fd5b8101908080359060200190929190505050610557565b60405180868152602001806020018060200180602001858152602001848103845288818151815260200191508051906020019080838360005b838110156100e75780820151818401526020810190506100cc565b50505050905090810190601f1680156101145780820380516001836020036101000a031916815260200191505b50848103835287818151815260200191508051906020019080838360005b8381101561014d578082015181840152602081019050610132565b50505050905090810190601f16801561017a5780820380516001836020036101000a031916815260200191505b50848103825286818151815260200191508051906020019080838360005b838110156101b3578082015181840152602081019050610198565b50505050905090810190601f1680156101e05780820380516001836020036101000a031916815260200191505b509850505050505050505060405180910390f35b6102206004803603602081101561020a57600080fd5b810190808035906020019092919050505061082f565b60405180868152602001806020018060200180602001858152602001848103845288818151815260200191508051906020019080838360005b83811015610274578082015181840152602081019050610259565b50505050905090810190601f1680156102a15780820380516001836020036101000a031916815260200191505b50848103835287818151815260200191508051906020019080838360005b838110156102da5780820151818401526020810190506102bf565b50505050905090810190601f1680156103075780820380516001836020036101000a031916815260200191505b50848103825286818151815260200191508051906020019080838360005b83811015610340578082015181840152602081019050610325565b50505050905090810190601f16801561036d5780820380516001836020036101000a031916815260200191505b509850505050505050505060405180910390f35b610389610a2d565b6040518082815260200191505060405180910390f35b6104f9600480360360608110156103b557600080fd5b81019080803590602001906401000000008111156103d257600080fd5b8201836020820111156103e457600080fd5b8035906020019184600183028401116401000000008311171561040657600080fd5b91908080601f016020809104026020016040519081016040528093929190818152602001838380828437600081840152601f19601f8201169050808301925050505050505091929192908035906020019064010000000081111561046957600080fd5b82018360208201111561047b57600080fd5b8035906020019184600183028401116401000000008311171561049d57600080fd5b91908080601f016020809104026020016040519081016040528093929190818152602001838380828437600081840152601f19601f82011690508083019250505050505050919291929080359060200190929190505050610a33565b005b6105276004803603602081101561051157600080fd5b8101908080359060200190929190505050610b30565b005b6105556004803603602081101561053f57600080fd5b8101908080359060200190929190505050610c10565b005b6000606080606060006001548611156105d8576040517f08c379a00000000000000000000000000000000000000000000000000000000081526004018080602001828103825260148152602001807f496e76616c6964207472616e73706f727420494400000000000000000000000081525060200191505060405180910390fd5b6105e0610cf0565b6000808881526020019081526020016000206040518060a001604052908160008201548152602001600182018054600181600116156101000203166002900480601f0160208091040260200160405190810160405280929190818152602001828054600181600116156101000203166002900480156106a05780601f10610675576101008083540402835291602001916106a0565b820191906000526020600020905b81548152906001019060200180831161068357829003601f168201915b50505050508152602001600282018054600181600116156101000203166002900480601f0160208091040260200160405190810160405280929190818152602001828054600181600116156101000203166002900480156107425780601f1061071757610100808354040283529160200191610742565b820191906000526020600020905b81548152906001019060200180831161072557829003601f168201915b50505050508152602001600382018054600181600116156101000203166002900480601f0160208091040260200160405190810160405280929190818152602001828054600181600116156101000203166002900480156107e45780601f106107b9576101008083540402835291602001916107e4565b820191906000526020600020905b8154815290600101906020018083116107c757829003601f168201915b50505050508152602001600482015481525050905080600001518160200151826040015183606001518460800151839350829250819150955095509550955095505091939590929450565b6000602052806000526040600020600091509050806000015490806001018054600181600116156101000203166002900480601f0160208091040260200160405190810160405280929190818152602001828054600181600116156101000203166002900480156108e15780601f106108b6576101008083540402835291602001916108e1565b820191906000526020600020905b8154815290600101906020018083116108c457829003601f168201915b505050505090806002018054600181600116156101000203166002900480601f01602080910402602001604051908101604052809291908181526020018280546001816001161561010002031660029004801561097f5780601f106109545761010080835404028352916020019161097f565b820191906000526020600020905b81548152906001019060200180831161096257829003601f168201915b505050505090806003018054600181600116156101000203166002900480601f016020809104026020016040519081016040528092919081815260200182805460018160011615610100020316600290048015610a1d5780601f106109f257610100808354040283529160200191610a1d565b820191906000526020600020905b815481529060010190602001808311610a0057829003601f168201915b5050505050908060040154905085565b60015481565b60016000815480929190600101919050555060606040518060400160405280601681526020017f50726f6e746f20616c6c612073706564697a696f6e650000000000000000000081525090506040518060a001604052806001548152602001858152602001848152602001828152602001838152506000806001548152602001908152602001600020600082015181600001556020820151816001019080519060200190610ae2929190610d1f565b506040820151816002019080519060200190610aff929190610d1f565b506060820151816003019080519060200190610b1c929190610d1f565b506080820151816004015590505050505050565b600154811115610ba8576040517f08c379a00000000000000000000000000000000000000000000000000000000081526004018080602001828103825260178152602001807f49442074726173706f72746f206e6f6e2076616c69646f00000000000000000081525060200191505060405180910390fd5b600080600083815260200190815260200160002090506040518060400160405280600a81526020017f436f6e7365676e61746f00000000000000000000000000000000000000000000815250816003019080519060200190610c0b929190610d9f565b505050565b600154811115610c88576040517f08c379a00000000000000000000000000000000000000000000000000000000081526004018080602001828103825260178152602001807f49442074726173706f72746f206e6f6e2076616c69646f00000000000000000081525060200191505060405180910390fd5b600080600083815260200190815260200160002090506040518060400160405280600781526020017f5370656469746f00000000000000000000000000000000000000000000000000815250816003019080519060200190610ceb929190610d9f565b505050565b6040518060a0016040528060008152602001606081526020016060815260200160608152602001600081525090565b828054600181600116156101000203166002900490600052602060002090601f016020900481019282601f10610d6057805160ff1916838001178555610d8e565b82800160010185558215610d8e579182015b82811115610d8d578251825591602001919060010190610d72565b5b509050610d9b9190610e1f565b5090565b828054600181600116156101000203166002900490600052602060002090601f016020900481019282601f10610de057805160ff1916838001178555610e0e565b82800160010185558215610e0e579182015b82811115610e0d578251825591602001919060010190610df2565b5b509050610e1b9190610e1f565b5090565b610e4191905b80821115610e3d576000816000905550600101610e25565b5090565b9056fea265627a7a723158208d6bffd2476490491aaa33b29828ccfe1cae155b9ce97931f27f301d2575810564736f6c63430005100032",
  "source": "// SPDX-License-Identifier: MIT\n\npragma solidity ^0.5.0;\n\ncontract TransportContract {\n    mapping(uint => Transport) public transports;\n    uint public transportCount = 0;\n\n    struct Transport {\n        uint transportId;\n        string departurePlace;\n        string arrivalPlace;\n        string transportState;\n        uint productId; //un prodotto a trasporto ma si può ripetere nei trasporti\n    }\n\n    function addTransport(string memory _departurePlace, string memory _arrivalPlace, uint _productId) public {\n        transportCount ++;\n        string memory _transportState = \"Pronto alla spedizione\";\n        transports[transportCount] = Transport(\n            transportCount,\n            _departurePlace,\n            _arrivalPlace,\n            _transportState,\n            _productId\n        );\n    }\n\n    function updateTransportStateShipped(uint transportId) public {\n        require(transportId <= transportCount, \"ID trasporto non valido\");\n\n        Transport storage transport = transports[transportId];\n        transport.transportState = \"Spedito\";\n    }\n\n    function updateTransportStateDelivered(uint transportId) public {\n        require(transportId <= transportCount, \"ID trasporto non valido\");\n\n        Transport storage transport = transports[transportId];\n        transport.transportState = \"Consegnato\";\n    }\n\n    function getTransportByID(uint _transportId) public view returns (\n        uint transportId,\n        string memory departurePlace,\n        string memory arrivalPlace,\n        string memory transportState,\n        uint productId\n\n    ) {\n        // Make sure the transport has a valid id\n        require(_transportId <= transportCount, \"Invalid transport ID\");\n\n        Transport memory _transport = transports[_transportId];\n        return (\n            _transport.transportId,\n            _transport.departurePlace,\n            _transport.arrivalPlace,\n            _transport.transportState,\n            _transport.productId\n        );\n    }\n}\n",
  "sourcePath": "/Users/andreacaputo/Desktop/transport/src/contracts/TransportContract.sol",
  "compiler": {
    "name": "solc",
    "version": "0.5.16+commit.9c3226ce.Emscripten.clang"
  },
  "schemaVersion": "3.4.14",
  "updatedAt": "2023-07-27T13:45:31.548Z",
  "networkType": "ethereum",
  "devdoc": {
    "methods": {}
  },
  "userdoc": {
    "methods": {}
  }
}